{
  "_format": "hh-sol-artifact-1",
  "contractName": "parkingTicket",
  "sourceName": "contracts/parkingTicket.sol",
  "abi": [
    {
      "inputs": [],
      "stateMutability": "payable",
      "type": "constructor"
    },
    {
      "inputs": [
        {
          "internalType": "uint256",
          "name": "_duration",
          "type": "uint256"
        },
        {
          "internalType": "string",
          "name": "_plateNumber",
          "type": "string"
        },
        {
          "internalType": "string",
          "name": "_zone",
          "type": "string"
        },
        {
          "internalType": "address payable",
          "name": "zoneOwner",
          "type": "address"
        }
      ],
      "name": "buyTicket",
      "outputs": [],
      "stateMutability": "payable",
      "type": "function"
    },
    {
      "inputs": [],
      "name": "checkValidity",
      "outputs": [],
      "stateMutability": "nonpayable",
      "type": "function"
    },
    {
      "inputs": [],
      "name": "getAllTickets",
      "outputs": [
        {
          "components": [
            {
              "internalType": "address",
              "name": "owner",
              "type": "address"
            },
            {
              "internalType": "uint256",
              "name": "duration",
              "type": "uint256"
            },
            {
              "internalType": "string",
              "name": "plateNumber",
              "type": "string"
            },
            {
              "internalType": "string",
              "name": "zone",
              "type": "string"
            },
            {
              "internalType": "bool",
              "name": "isActive",
              "type": "bool"
            },
            {
              "internalType": "uint256",
              "name": "startTime",
              "type": "uint256"
            }
          ],
          "internalType": "struct parkingTicket.Ticket[]",
          "name": "",
          "type": "tuple[]"
        }
      ],
      "stateMutability": "view",
      "type": "function"
    },
    {
      "inputs": [],
      "name": "getTotalTickets",
      "outputs": [
        {
          "internalType": "uint256",
          "name": "",
          "type": "uint256"
        }
      ],
      "stateMutability": "view",
      "type": "function"
    },
    {
      "inputs": [
        {
          "internalType": "address",
          "name": "",
          "type": "address"
        },
        {
          "internalType": "uint256",
          "name": "",
          "type": "uint256"
        }
      ],
      "name": "parkingTickets",
      "outputs": [
        {
          "internalType": "address",
          "name": "owner",
          "type": "address"
        },
        {
          "internalType": "uint256",
          "name": "duration",
          "type": "uint256"
        },
        {
          "internalType": "string",
          "name": "plateNumber",
          "type": "string"
        },
        {
          "internalType": "string",
          "name": "zone",
          "type": "string"
        },
        {
          "internalType": "bool",
          "name": "isActive",
          "type": "bool"
        },
        {
          "internalType": "uint256",
          "name": "startTime",
          "type": "uint256"
        }
      ],
      "stateMutability": "view",
      "type": "function"
    }
  ],
  "bytecode": "0x608060405262000033604051806060016040528060258152602001620019ef602591396200003960201b62000ac81760201c565b620001c3565b620000d9816040516024016200005091906200019f565b6040516020818303038152906040527f41304fac000000000000000000000000000000000000000000000000000000007bffffffffffffffffffffffffffffffffffffffffffffffffffffffff19166020820180517bffffffffffffffffffffffffffffffffffffffffffffffffffffffff8381831617835250505050620000dc60201b60201c565b50565b60008151905060006a636f6e736f6c652e6c6f679050602083016000808483855afa5050505050565b600081519050919050565b600082825260208201905092915050565b60005b838110156200014157808201518184015260208101905062000124565b60008484015250505050565b6000601f19601f8301169050919050565b60006200016b8262000105565b62000177818562000110565b93506200018981856020860162000121565b62000194816200014d565b840191505092915050565b60006020820190508181036000830152620001bb81846200015e565b905092915050565b61181c80620001d36000396000f3fe60806040526004361061004a5760003560e01c806303e96fe31461004f57806306e8337f1461007a578063122d97ba146100a5578063211fe912146100e75780635d5b08d514610103575b600080fd5b34801561005b57600080fd5b5061006461011a565b6040516100719190610f19565b60405180910390f35b34801561008657600080fd5b5061008f61035f565b60405161009c9190610f4a565b60405180910390f35b3480156100b157600080fd5b506100cc60048036038101906100c79190610fd1565b6103aa565b6040516100de96959493929190611079565b60405180910390f35b61010160048036038101906100fc919061125b565b610540565b005b34801561010f57600080fd5b506101186107a2565b005b6060600160003373ffffffffffffffffffffffffffffffffffffffff1673ffffffffffffffffffffffffffffffffffffffff168152602001908152602001600020805480602002602001604051908101604052809291908181526020016000905b8282101561035657838290600052602060002090600602016040518060c00160405290816000820160009054906101000a900473ffffffffffffffffffffffffffffffffffffffff1673ffffffffffffffffffffffffffffffffffffffff1673ffffffffffffffffffffffffffffffffffffffff1681526020016001820154815260200160028201805461020e90611329565b80601f016020809104026020016040519081016040528092919081815260200182805461023a90611329565b80156102875780601f1061025c57610100808354040283529160200191610287565b820191906000526020600020905b81548152906001019060200180831161026a57829003601f168201915b505050505081526020016003820180546102a090611329565b80601f01602080910402602001604051908101604052809291908181526020018280546102cc90611329565b80156103195780601f106102ee57610100808354040283529160200191610319565b820191906000526020600020905b8154815290600101906020018083116102fc57829003601f168201915b505050505081526020016004820160009054906101000a900460ff161515151581526020016005820154815250508152602001906001019061017b565b50505050905090565b60006103a26040518060400160405280601881526020017f5765206861766520256420746f74616c207469636b6574730000000000000000815250600054610b61565b600054905090565b600160205281600052604060002081815481106103c657600080fd5b9060005260206000209060060201600091509150508060000160009054906101000a900473ffffffffffffffffffffffffffffffffffffffff169080600101549080600201805461041690611329565b80601f016020809104026020016040519081016040528092919081815260200182805461044290611329565b801561048f5780601f106104645761010080835404028352916020019161048f565b820191906000526020600020905b81548152906001019060200180831161047257829003601f168201915b5050505050908060030180546104a490611329565b80601f01602080910402602001604051908101604052809291908181526020018280546104d090611329565b801561051d5780601f106104f25761010080835404028352916020019161051d565b820191906000526020600020905b81548152906001019060200180831161050057829003601f168201915b5050505050908060040160009054906101000a900460ff16908060050154905086565b60016000808282546105529190611389565b925050819055506105986040518060400160405280600d81526020017f25732068617320626f756768740000000000000000000000000000000000000081525033610bfd565b60008173ffffffffffffffffffffffffffffffffffffffff16346040516105be906113ee565b60006040518083038185875af1925050503d80600081146105fb576040519150601f19603f3d011682016040523d82523d6000602084013e610600565b606091505b5050905080610644576040517f08c379a000000000000000000000000000000000000000000000000000000000815260040161063b9061144f565b60405180910390fd5b600160003373ffffffffffffffffffffffffffffffffffffffff1673ffffffffffffffffffffffffffffffffffffffff1681526020019081526020016000206040518060c001604052803373ffffffffffffffffffffffffffffffffffffffff16815260200187815260200186815260200185815260200160011515815260200142815250908060018154018082558091505060019003906000526020600020906006020160009091909190915060008201518160000160006101000a81548173ffffffffffffffffffffffffffffffffffffffff021916908373ffffffffffffffffffffffffffffffffffffffff160217905550602082015181600101556040820151816002019081610758919061161b565b50606082015181600301908161076e919061161b565b5060808201518160040160006101000a81548160ff02191690831515021790555060a0820151816005015550505050505050565b60005b600160003373ffffffffffffffffffffffffffffffffffffffff1673ffffffffffffffffffffffffffffffffffffffff16815260200190815260200160002080549050811015610ac5576000600160003373ffffffffffffffffffffffffffffffffffffffff1673ffffffffffffffffffffffffffffffffffffffff1681526020019081526020016000208281548110610842576108416116ed565b5b90600052602060002090600602016040518060c00160405290816000820160009054906101000a900473ffffffffffffffffffffffffffffffffffffffff1673ffffffffffffffffffffffffffffffffffffffff1673ffffffffffffffffffffffffffffffffffffffff168152602001600182015481526020016002820180546108cb90611329565b80601f01602080910402602001604051908101604052809291908181526020018280546108f790611329565b80156109445780601f1061091957610100808354040283529160200191610944565b820191906000526020600020905b81548152906001019060200180831161092757829003601f168201915b5050505050815260200160038201805461095d90611329565b80601f016020809104026020016040519081016040528092919081815260200182805461098990611329565b80156109d65780601f106109ab576101008083540402835291602001916109d6565b820191906000526020600020905b8154815290600101906020018083116109b957829003601f168201915b505050505081526020016004820160009054906101000a900460ff161515151581526020016005820154815250509050600081602001518260a00151610a1c9190611389565b905081608001518015610a2f5750804210155b15610ab0576000600160003373ffffffffffffffffffffffffffffffffffffffff1673ffffffffffffffffffffffffffffffffffffffff1681526020019081526020016000208481548110610a8757610a866116ed565b5b906000526020600020906006020160040160006101000a81548160ff0219169083151502179055505b50508080610abd9061171c565b9150506107a5565b50565b610b5e81604051602401610adc9190611764565b6040516020818303038152906040527f41304fac000000000000000000000000000000000000000000000000000000007bffffffffffffffffffffffffffffffffffffffffffffffffffffffff19166020820180517bffffffffffffffffffffffffffffffffffffffffffffffffffffffff8381831617835250505050610c99565b50565b610bf98282604051602401610b77929190611786565b6040516020818303038152906040527fb60e72cc000000000000000000000000000000000000000000000000000000007bffffffffffffffffffffffffffffffffffffffffffffffffffffffff19166020820180517bffffffffffffffffffffffffffffffffffffffffffffffffffffffff8381831617835250505050610c99565b5050565b610c958282604051602401610c139291906117b6565b6040516020818303038152906040527f319af333000000000000000000000000000000000000000000000000000000007bffffffffffffffffffffffffffffffffffffffffffffffffffffffff19166020820180517bffffffffffffffffffffffffffffffffffffffffffffffffffffffff8381831617835250505050610c99565b5050565b60008151905060006a636f6e736f6c652e6c6f679050602083016000808483855afa5050505050565b600081519050919050565b600082825260208201905092915050565b6000819050602082019050919050565b600073ffffffffffffffffffffffffffffffffffffffff82169050919050565b6000610d1982610cee565b9050919050565b610d2981610d0e565b82525050565b6000819050919050565b610d4281610d2f565b82525050565b600081519050919050565b600082825260208201905092915050565b60005b83811015610d82578082015181840152602081019050610d67565b60008484015250505050565b6000601f19601f8301169050919050565b6000610daa82610d48565b610db48185610d53565b9350610dc4818560208601610d64565b610dcd81610d8e565b840191505092915050565b60008115159050919050565b610ded81610dd8565b82525050565b600060c083016000830151610e0b6000860182610d20565b506020830151610e1e6020860182610d39565b5060408301518482036040860152610e368282610d9f565b91505060608301518482036060860152610e508282610d9f565b9150506080830151610e656080860182610de4565b5060a0830151610e7860a0860182610d39565b508091505092915050565b6000610e8f8383610df3565b905092915050565b6000602082019050919050565b6000610eaf82610cc2565b610eb98185610ccd565b935083602082028501610ecb85610cde565b8060005b85811015610f075784840389528151610ee88582610e83565b9450610ef383610e97565b925060208a01995050600181019050610ecf565b50829750879550505050505092915050565b60006020820190508181036000830152610f338184610ea4565b905092915050565b610f4481610d2f565b82525050565b6000602082019050610f5f6000830184610f3b565b92915050565b6000604051905090565b600080fd5b600080fd5b610f8281610d0e565b8114610f8d57600080fd5b50565b600081359050610f9f81610f79565b92915050565b610fae81610d2f565b8114610fb957600080fd5b50565b600081359050610fcb81610fa5565b92915050565b60008060408385031215610fe857610fe7610f6f565b5b6000610ff685828601610f90565b925050602061100785828601610fbc565b9150509250929050565b61101a81610d0e565b82525050565b600082825260208201905092915050565b600061103c82610d48565b6110468185611020565b9350611056818560208601610d64565b61105f81610d8e565b840191505092915050565b61107381610dd8565b82525050565b600060c08201905061108e6000830189611011565b61109b6020830188610f3b565b81810360408301526110ad8187611031565b905081810360608301526110c18186611031565b90506110d0608083018561106a565b6110dd60a0830184610f3b565b979650505050505050565b600080fd5b600080fd5b7f4e487b7100000000000000000000000000000000000000000000000000000000600052604160045260246000fd5b61112a82610d8e565b810181811067ffffffffffffffff82111715611149576111486110f2565b5b80604052505050565b600061115c610f65565b90506111688282611121565b919050565b600067ffffffffffffffff821115611188576111876110f2565b5b61119182610d8e565b9050602081019050919050565b82818337600083830152505050565b60006111c06111bb8461116d565b611152565b9050828152602081018484840111156111dc576111db6110ed565b5b6111e784828561119e565b509392505050565b600082601f830112611204576112036110e8565b5b81356112148482602086016111ad565b91505092915050565b600061122882610cee565b9050919050565b6112388161121d565b811461124357600080fd5b50565b6000813590506112558161122f565b92915050565b6000806000806080858703121561127557611274610f6f565b5b600061128387828801610fbc565b945050602085013567ffffffffffffffff8111156112a4576112a3610f74565b5b6112b0878288016111ef565b935050604085013567ffffffffffffffff8111156112d1576112d0610f74565b5b6112dd878288016111ef565b92505060606112ee87828801611246565b91505092959194509250565b7f4e487b7100000000000000000000000000000000000000000000000000000000600052602260045260246000fd5b6000600282049050600182168061134157607f821691505b602082108103611354576113536112fa565b5b50919050565b7f4e487b7100000000000000000000000000000000000000000000000000000000600052601160045260246000fd5b600061139482610d2f565b915061139f83610d2f565b92508282019050808211156113b7576113b661135a565b5b92915050565b600081905092915050565b50565b60006113d86000836113bd565b91506113e3826113c8565b600082019050919050565b60006113f9826113cb565b9150819050919050565b7f4661696c656420746f2073656e64204574686572000000000000000000000000600082015250565b6000611439601483611020565b915061144482611403565b602082019050919050565b600060208201905081810360008301526114688161142c565b9050919050565b60008190508160005260206000209050919050565b60006020601f8301049050919050565b600082821b905092915050565b6000600883026114d17fffffffffffffffffffffffffffffffffffffffffffffffffffffffffffffffff82611494565b6114db8683611494565b95508019841693508086168417925050509392505050565b6000819050919050565b600061151861151361150e84610d2f565b6114f3565b610d2f565b9050919050565b6000819050919050565b611532836114fd565b61154661153e8261151f565b8484546114a1565b825550505050565b600090565b61155b61154e565b611566818484611529565b505050565b5b8181101561158a5761157f600082611553565b60018101905061156c565b5050565b601f8211156115cf576115a08161146f565b6115a984611484565b810160208510156115b8578190505b6115cc6115c485611484565b83018261156b565b50505b505050565b600082821c905092915050565b60006115f2600019846008026115d4565b1980831691505092915050565b600061160b83836115e1565b9150826002028217905092915050565b61162482610d48565b67ffffffffffffffff81111561163d5761163c6110f2565b5b6116478254611329565b61165282828561158e565b600060209050601f8311600181146116855760008415611673578287015190505b61167d85826115ff565b8655506116e5565b601f1984166116938661146f565b60005b828110156116bb57848901518255600182019150602085019450602081019050611696565b868310156116d857848901516116d4601f8916826115e1565b8355505b6001600288020188555050505b505050505050565b7f4e487b7100000000000000000000000000000000000000000000000000000000600052603260045260246000fd5b600061172782610d2f565b91507fffffffffffffffffffffffffffffffffffffffffffffffffffffffffffffffff82036117595761175861135a565b5b600182019050919050565b6000602082019050818103600083015261177e8184611031565b905092915050565b600060408201905081810360008301526117a08185611031565b90506117af6020830184610f3b565b9392505050565b600060408201905081810360008301526117d08185611031565b90506117df6020830184611011565b939250505056fea264697066735822122048d709bfc58009cb0d7f265142cb3045dc5665af552850897a9758002d4e8aa664736f6c63430008110033596f20796f2c204920616d206120636f6e747261637420616e64204920616d20736d617274",
  "linkReferences": {},
  "deployedLinkReferences": {}
}