{
  "_format": "hh-sol-artifact-1",
  "contractName": "parkingTicket",
  "sourceName": "contracts/parkingTicket.sol",
  "abi": [
    {
      "inputs": [],
      "stateMutability": "payable",
      "type": "constructor"
    },
    {
      "inputs": [
        {
          "internalType": "uint256",
          "name": "_duration",
          "type": "uint256"
        },
        {
          "internalType": "string",
          "name": "_plateNumber",
          "type": "string"
        },
        {
          "internalType": "string",
          "name": "_zone",
          "type": "string"
        },
        {
          "internalType": "address payable",
          "name": "zoneOwner",
          "type": "address"
        }
      ],
      "name": "buyTicket",
      "outputs": [],
      "stateMutability": "payable",
      "type": "function"
    },
    {
      "inputs": [],
      "name": "getAllTickets",
      "outputs": [
        {
          "components": [
            {
              "internalType": "address",
              "name": "owner",
              "type": "address"
            },
            {
              "internalType": "uint256",
              "name": "duration",
              "type": "uint256"
            },
            {
              "internalType": "string",
              "name": "plateNumber",
              "type": "string"
            },
            {
              "internalType": "string",
              "name": "zone",
              "type": "string"
            },
            {
              "internalType": "bool",
              "name": "isActive",
              "type": "bool"
            },
            {
              "internalType": "uint256",
              "name": "startTime",
              "type": "uint256"
            }
          ],
          "internalType": "struct parkingTicket.Ticket[]",
          "name": "",
          "type": "tuple[]"
        }
      ],
      "stateMutability": "view",
      "type": "function"
    },
    {
      "inputs": [],
      "name": "getTotalTickets",
      "outputs": [
        {
          "internalType": "uint256",
          "name": "",
          "type": "uint256"
        }
      ],
      "stateMutability": "view",
      "type": "function"
    }
  ],
  "bytecode": "0x608060405262000033604051806060016040528060258152602001620012ec602591396200003960201b620005261760201c565b620001c3565b620000d9816040516024016200005091906200019f565b6040516020818303038152906040527f41304fac000000000000000000000000000000000000000000000000000000007bffffffffffffffffffffffffffffffffffffffffffffffffffffffff19166020820180517bffffffffffffffffffffffffffffffffffffffffffffffffffffffff8381831617835250505050620000dc60201b60201c565b50565b60008151905060006a636f6e736f6c652e6c6f679050602083016000808483855afa5050505050565b600081519050919050565b600082825260208201905092915050565b60005b838110156200014157808201518184015260208101905062000124565b60008484015250505050565b6000601f19601f8301169050919050565b60006200016b8262000105565b62000177818562000110565b93506200018981856020860162000121565b62000194816200014d565b840191505092915050565b60006020820190508181036000830152620001bb81846200015e565b905092915050565b61111980620001d36000396000f3fe6080604052600436106100345760003560e01c806303e96fe31461003957806306e8337f14610064578063211fe9121461008f575b600080fd5b34801561004557600080fd5b5061004e6100ab565b60405161005b9190610977565b60405180910390f35b34801561007057600080fd5b506100796102b3565b60405161008691906109a8565b60405180910390f35b6100a960048036038101906100a49190610b76565b6102fe565b005b60606001805480602002602001604051908101604052809291908181526020016000905b828210156102aa57838290600052602060002090600602016040518060c00160405290816000820160009054906101000a900473ffffffffffffffffffffffffffffffffffffffff1673ffffffffffffffffffffffffffffffffffffffff1673ffffffffffffffffffffffffffffffffffffffff1681526020016001820154815260200160028201805461016290610c44565b80601f016020809104026020016040519081016040528092919081815260200182805461018e90610c44565b80156101db5780601f106101b0576101008083540402835291602001916101db565b820191906000526020600020905b8154815290600101906020018083116101be57829003601f168201915b505050505081526020016003820180546101f490610c44565b80601f016020809104026020016040519081016040528092919081815260200182805461022090610c44565b801561026d5780601f106102425761010080835404028352916020019161026d565b820191906000526020600020905b81548152906001019060200180831161025057829003601f168201915b505050505081526020016004820160009054906101000a900460ff16151515158152602001600582015481525050815260200190600101906100cf565b50505050905090565b60006102f66040518060400160405280601881526020017f5765206861766520256420746f74616c207469636b65747300000000000000008152506000546105bf565b600054905090565b60016000808282546103109190610ca4565b925050819055506103566040518060400160405280600d81526020017f25732068617320626f75676874000000000000000000000000000000000000008152503361065b565b6000808273ffffffffffffffffffffffffffffffffffffffff163460405161037d90610d09565b60006040518083038185875af1925050503d80600081146103ba576040519150601f19603f3d011682016040523d82523d6000602084013e6103bf565b606091505b509150915081610404576040517f08c379a00000000000000000000000000000000000000000000000000000000081526004016103fb90610d7b565b60405180910390fd5b60016040518060c001604052803373ffffffffffffffffffffffffffffffffffffffff16815260200188815260200187815260200186815260200160011515815260200142815250908060018154018082558091505060019003906000526020600020906006020160009091909190915060008201518160000160006101000a81548173ffffffffffffffffffffffffffffffffffffffff021916908373ffffffffffffffffffffffffffffffffffffffff1602179055506020820151816001015560408201518160020190816104db9190610f47565b5060608201518160030190816104f19190610f47565b5060808201518160040160006101000a81548160ff02191690831515021790555060a082015181600501555050505050505050565b6105bc8160405160240161053a9190611052565b6040516020818303038152906040527f41304fac000000000000000000000000000000000000000000000000000000007bffffffffffffffffffffffffffffffffffffffffffffffffffffffff19166020820180517bffffffffffffffffffffffffffffffffffffffffffffffffffffffff83818316178352505050506106f7565b50565b61065782826040516024016105d5929190611074565b6040516020818303038152906040527fb60e72cc000000000000000000000000000000000000000000000000000000007bffffffffffffffffffffffffffffffffffffffffffffffffffffffff19166020820180517bffffffffffffffffffffffffffffffffffffffffffffffffffffffff83818316178352505050506106f7565b5050565b6106f382826040516024016106719291906110b3565b6040516020818303038152906040527f319af333000000000000000000000000000000000000000000000000000000007bffffffffffffffffffffffffffffffffffffffffffffffffffffffff19166020820180517bffffffffffffffffffffffffffffffffffffffffffffffffffffffff83818316178352505050506106f7565b5050565b60008151905060006a636f6e736f6c652e6c6f679050602083016000808483855afa5050505050565b600081519050919050565b600082825260208201905092915050565b6000819050602082019050919050565b600073ffffffffffffffffffffffffffffffffffffffff82169050919050565b60006107778261074c565b9050919050565b6107878161076c565b82525050565b6000819050919050565b6107a08161078d565b82525050565b600081519050919050565b600082825260208201905092915050565b60005b838110156107e05780820151818401526020810190506107c5565b60008484015250505050565b6000601f19601f8301169050919050565b6000610808826107a6565b61081281856107b1565b93506108228185602086016107c2565b61082b816107ec565b840191505092915050565b60008115159050919050565b61084b81610836565b82525050565b600060c083016000830151610869600086018261077e565b50602083015161087c6020860182610797565b506040830151848203604086015261089482826107fd565b915050606083015184820360608601526108ae82826107fd565b91505060808301516108c36080860182610842565b5060a08301516108d660a0860182610797565b508091505092915050565b60006108ed8383610851565b905092915050565b6000602082019050919050565b600061090d82610720565b610917818561072b565b9350836020820285016109298561073c565b8060005b85811015610965578484038952815161094685826108e1565b9450610951836108f5565b925060208a0199505060018101905061092d565b50829750879550505050505092915050565b600060208201905081810360008301526109918184610902565b905092915050565b6109a28161078d565b82525050565b60006020820190506109bd6000830184610999565b92915050565b6000604051905090565b600080fd5b600080fd5b6109e08161078d565b81146109eb57600080fd5b50565b6000813590506109fd816109d7565b92915050565b600080fd5b600080fd5b7f4e487b7100000000000000000000000000000000000000000000000000000000600052604160045260246000fd5b610a45826107ec565b810181811067ffffffffffffffff82111715610a6457610a63610a0d565b5b80604052505050565b6000610a776109c3565b9050610a838282610a3c565b919050565b600067ffffffffffffffff821115610aa357610aa2610a0d565b5b610aac826107ec565b9050602081019050919050565b82818337600083830152505050565b6000610adb610ad684610a88565b610a6d565b905082815260208101848484011115610af757610af6610a08565b5b610b02848285610ab9565b509392505050565b600082601f830112610b1f57610b1e610a03565b5b8135610b2f848260208601610ac8565b91505092915050565b6000610b438261074c565b9050919050565b610b5381610b38565b8114610b5e57600080fd5b50565b600081359050610b7081610b4a565b92915050565b60008060008060808587031215610b9057610b8f6109cd565b5b6000610b9e878288016109ee565b945050602085013567ffffffffffffffff811115610bbf57610bbe6109d2565b5b610bcb87828801610b0a565b935050604085013567ffffffffffffffff811115610bec57610beb6109d2565b5b610bf887828801610b0a565b9250506060610c0987828801610b61565b91505092959194509250565b7f4e487b7100000000000000000000000000000000000000000000000000000000600052602260045260246000fd5b60006002820490506001821680610c5c57607f821691505b602082108103610c6f57610c6e610c15565b5b50919050565b7f4e487b7100000000000000000000000000000000000000000000000000000000600052601160045260246000fd5b6000610caf8261078d565b9150610cba8361078d565b9250828201905080821115610cd257610cd1610c75565b5b92915050565b600081905092915050565b50565b6000610cf3600083610cd8565b9150610cfe82610ce3565b600082019050919050565b6000610d1482610ce6565b9150819050919050565b600082825260208201905092915050565b7f4661696c656420746f2073656e64204574686572000000000000000000000000600082015250565b6000610d65601483610d1e565b9150610d7082610d2f565b602082019050919050565b60006020820190508181036000830152610d9481610d58565b9050919050565b60008190508160005260206000209050919050565b60006020601f8301049050919050565b600082821b905092915050565b600060088302610dfd7fffffffffffffffffffffffffffffffffffffffffffffffffffffffffffffffff82610dc0565b610e078683610dc0565b95508019841693508086168417925050509392505050565b6000819050919050565b6000610e44610e3f610e3a8461078d565b610e1f565b61078d565b9050919050565b6000819050919050565b610e5e83610e29565b610e72610e6a82610e4b565b848454610dcd565b825550505050565b600090565b610e87610e7a565b610e92818484610e55565b505050565b5b81811015610eb657610eab600082610e7f565b600181019050610e98565b5050565b601f821115610efb57610ecc81610d9b565b610ed584610db0565b81016020851015610ee4578190505b610ef8610ef085610db0565b830182610e97565b50505b505050565b600082821c905092915050565b6000610f1e60001984600802610f00565b1980831691505092915050565b6000610f378383610f0d565b9150826002028217905092915050565b610f50826107a6565b67ffffffffffffffff811115610f6957610f68610a0d565b5b610f738254610c44565b610f7e828285610eba565b600060209050601f831160018114610fb15760008415610f9f578287015190505b610fa98582610f2b565b865550611011565b601f198416610fbf86610d9b565b60005b82811015610fe757848901518255600182019150602085019450602081019050610fc2565b868310156110045784890151611000601f891682610f0d565b8355505b6001600288020188555050505b505050505050565b6000611024826107a6565b61102e8185610d1e565b935061103e8185602086016107c2565b611047816107ec565b840191505092915050565b6000602082019050818103600083015261106c8184611019565b905092915050565b6000604082019050818103600083015261108e8185611019565b905061109d6020830184610999565b9392505050565b6110ad8161076c565b82525050565b600060408201905081810360008301526110cd8185611019565b90506110dc60208301846110a4565b939250505056fea264697066735822122030889f2ecb43b6aa04ef99b078cc1f1072a517433faa32cef2990a226ee0710f64736f6c63430008110033596f20796f2c204920616d206120636f6e747261637420616e64204920616d20736d617274",
  "linkReferences": {},
  "deployedLinkReferences": {}
}